:100000000C9434000C9451000C9451000C94510049
:100010000C9451000C9451000C9451000C9451001C
:100020000C9451000C9451000C9451000C9451000C
:100030000C9451000C9451000C9451000C945100FC
:100040000C9451000C9451000C9451000C945100EC
:100050000C9451000C9451000C9451000C945100DC
:100060000C9451000C94510011241FBECFEFD8E026
:10007000DEBFCDBF11E0A0E0B1E0E4EBF5E002C0EF
:1000800005900D92A830B107D9F721E0A8E0B1E0C2
:1000900001C01D92AA32B207E1F70E94F8010C9448
:1000A000D8020C94000080FF02C05A9A01C05A98EE
:1000B00081FF02C05B9A01C05B9882FF02C05C9A1C
:1000C00001C05C9883FF02C05D9A08955D98089511
:1000D00089B182FB882780F94B9982604C998460B2
:1000E0004D9988600895CF93DF9352985398549810
:1000F00055985F9A289A0E94680090E1899FE001D4
:1001000011242898289A0E94680028988C2BDF9147
:10011000CF9108955E980E9473000895CF93C82FE1
:10012000529A539A549A559A5F98289A82958F704A
:100130000E9453002898289A8C2F0E9453002898D8
:100140000E948A008823E4F3CF9108955E980E946C
:100150008E0008955E9A0E948E000895CF93DF93DB
:10016000EC018881882331F021960E94AA008991B0
:100170008111FBCFDF91CF91089581E00E94A6000D
:100180008FE39FE10197F1F700C000000895CF933E
:10019000529A539A549A559A209A569A579A8FE59A
:1001A0009AEE0197F1F700C000005E9828985F98DA
:1001B000C3E0289A83E00E94530028988FE19EE4D0
:1001C0000197F1F700C00000C15099F7289A82E02A
:1001D0000E94530028988FE99FE00197F1F700C033
:1001E000000088E20E94A60088E00E94A60081E04C
:1001F0000E94A60086E00E94A6008CE00E94A60055
:10020000CF910895EAE7F0E080818768808383ECEE
:1002100080937C00389839983A983B980895EAE79B
:10022000F0E0808180648083808186FDFDCF089529
:10023000FC012081318192818381831708F4832F0F
:10024000821708F4822F891708F4892F90E0089507
:10025000CF92DF92EF92FF920F931F93CF93DF9392
:100260000CE710E080ECF80180830E940F01C8E7E2
:10027000D0E08881998190930F0180930E0196952B
:100280008795969587958093120181ECF80180837C
:100290000E940F0188819981909327018093260104
:1002A00096958795969587958093130182ECF80132
:1002B00080830E940F018881998190930B01809324
:1002C0000A0196958795969587958093140183ECFE
:1002D000F80180830E940F01E880F980F0921101FB
:1002E000E0921001C7019695879596958795809322
:1002F000150182E191E00E9418018C01909329017F
:1003000080932801C0910E01D0910F0180912601A8
:1003100090912701C81BD90BD0930901C093080104
:1003200080910A0190910B018E199F0990930D0104
:1003300080930C01BE01882777FD8095982F0E943D
:1003400035026B017C01E894F7F8B801882777FD46
:100350008095982F0E9435029B01AC01C701B60120
:100360000E94700218165CF41C161D061CF42D98D1
:100370002C9A07C0DD232CF42C982D9A02C02D98BE
:100380002C98C0910C01D0910D01BE01882777FDFA
:100390008095982F0E9435026B017C01E894F7F854
:1003A0006091280170912901882777FD8095982F09
:1003B0000E9435029B01AC01C701B6010E94700288
:1003C00018165CF41C161D061CF42B982A9A07C0FC
:1003D000DD232CF42A982B9A02C02A982B98DF91BF
:1003E000CF911F910F91FF90EF90DF90CF900895E4
:1003F000259A0E9402010E94C700EAE7F0E080818E
:1004000080648083808186FDFDCF8091780090910B
:1004100079004AE050E066E171E00E94980286E1CE
:1004200091E00E94AE000E9428010E94BD004AE0B7
:1004300050E066E171E080912801909129010E94CD
:10044000980280E091E00E94AE0086E191E00E9477
:10045000AE002FEF81EE94E0215080409040E1F714
:1004600000C00000E0CFE89409C097FB3EF49095EF
:100470008095709561957F4F8F4F9F4F9923A9F07D
:10048000F92F96E9BB279395F6958795779567950C
:10049000B795F111F8CFFAF4BB0F11F460FF1BC050
:1004A0006F5F7F4F8F4F9F4F16C0882311F096E9E3
:1004B00011C0772321F09EE8872F762F05C0662391
:1004C00071F096E8862F70E060E02AF09A95660F4A
:1004D000771F881FDAF7880F9695879597F9089503
:1004E00003D008F48FEF0895990F0008550FAA0B59
:1004F000E0E8FEEF16161706E807F907C0F0121637
:100500001306E407F50798F0621B730B840B950B39
:1005100039F40A2661F0232B242B252B21F408958E
:100520000A2609F4A140A6958FEF811D811D08952B
:100530004532510520F4423010F00C94A302FB0127
:100540001082CB010895BB274A3031F4992322F45D
:10055000BDE2909581959F4F0C94AF02BB27FB01A4
:100560005527AA27880F991FAA1FA41710F0A41BAC
:1005700083955051B9F7A05DAA3308F0A95DA19306
:10058000009779F7B111B1931192CB010C94C80285
:10059000DC01FC01672F71917723E1F7329704C0EA
:1005A0007C916D9370836291AE17BF07C8F3089575
:0405B000F894FFCFED
:0805B400444946463A200000CC
:00000001FF
